{
  "transactions": [
    {
      "hash": "0x3a5d91dc6dd82da17d4e6a610f128cda4424a56396d542de2649b9c560bce7d2",
      "transactionType": "CALL",
      "contractName": "CREATE3Factory",
      "contractAddress": "0x37922885311bc9d18e136e4fe6654409d3f45ffd",
      "function": "deploy(bytes32,bytes)",
      "arguments": [
        "0xf1b2fcd8688a2fa79727dcd3bdba237a85bbc737ca331cb5de6905187d4c646f",
        "0x60c03461011f57601f61074438819003918201601f19168301916001600160401b0383118484101761012457808492604094855283398101031261011f5780516001600160a01b0381169182820361011f576020015191156100da5781156100955760805260a052604051610609908161013b8239608051818181608b01526103ad015260a05181818161016d01526102070152f35b60405162461bcd60e51b815260206004820152601560248201527f496e76616c6964206d61782070726963652061676500000000000000000000006044820152606490fd5b60405162461bcd60e51b815260206004820152601660248201527f496e76616c6964207369676e65722061646472657373000000000000000000006044820152606490fd5b600080fd5b634e487b7160e01b600052604160045260246000fdfe608080604052600436101561001357600080fd5b60003560e01c9081631584410a1461013957508063eab44f2a146100b45763f74d54801461004057600080fd5b346100af5760007ffffffffffffffffffffffffffffffffffffffffffffffffffffffffffffffffc3601126100af57602060405173ffffffffffffffffffffffffffffffffffffffff7f0000000000000000000000000000000000000000000000000000000000000000168152f35b600080fd5b346100af5760207ffffffffffffffffffffffffffffffffffffffffffffffffffffffffffffffffc3601126100af5760043567ffffffffffffffff81116100af5760807ffffffffffffffffffffffffffffffffffffffffffffffffffffffffffffffffc82360301126100af5761012f602091600401610200565b6040519015158152f35b346100af5760007ffffffffffffffffffffffffffffffffffffffffffffffffffffffffffffffffc3601126100af576020907f00000000000000000000000000000000000000000000000000000000000000008152f35b90601f7fffffffffffffffffffffffffffffffffffffffffffffffffffffffffffffffe0910116810190811067ffffffffffffffff8211176101d157604052565b7f4e487b7100000000000000000000000000000000000000000000000000000000600052604160045260246000fd5b60408101357f000000000000000000000000000000000000000000000000000000000000000081018082116103da5742116103d35781359073ffffffffffffffffffffffffffffffffffffffff821682036100af57604051907fffffffffffffffffffffffffffffffffffffffff000000000000000000000000602083019360601b168352602084013560348301526054820152466074820152607481526102a9609482610190565b5190207f19457468657265756d205369676e6564204d6573736167653a0a333200000000600052601c52603c600020906060810135907fffffffffffffffffffffffffffffffffffffffffffffffffffffffffffffffe1813603018212156100af57019081359167ffffffffffffffff83116100af57602081019183360383136100af576040519161036360207fffffffffffffffffffffffffffffffffffffffffffffffffffffffffffffffe0601f8801160184610190565b84835260208536920101116100af5760006020856103959661038c968387013784010152610409565b90929192610445565b73ffffffffffffffffffffffffffffffffffffffff807f00000000000000000000000000000000000000000000000000000000000000001691161490565b5050600090565b7f4e487b7100000000000000000000000000000000000000000000000000000000600052601160045260246000fd5b815191906041830361043a5761043392506020820151906060604084015193015160001a90610531565b9192909190565b505060009160029190565b9190916004811015610502578061045b57509050565b60006001820361048f577ff645eedf0000000000000000000000000000000000000000000000000000000060005260046000fd5b50600281036104c657827ffce698f70000000000000000000000000000000000000000000000000000000060005260045260246000fd5b90916003600092146104d6575050565b602492507fd78bce0c000000000000000000000000000000000000000000000000000000008252600452fd5b7f4e487b7100000000000000000000000000000000000000000000000000000000600052602160045260246000fd5b91907f7fffffffffffffffffffffffffffffff5d576e7357a4501ddfe92f46681b20a084116105c7579160209360809260ff60009560405194855216868401526040830152606082015282805260015afa156105bb5760005173ffffffffffffffffffffffffffffffffffffffff8116156105af5790600090600090565b50600090600190600090565b6040513d6000823e3d90fd5b5050506000916003919056fea2646970667358221220507bfe3c353fdcdf31efbfa99149abf51ff91c9fbe08d34335eca546b3eccd7564736f6c634300081a00330000000000000000000000002f321372e8a9755cd2ca6114eb8da32a14f8100b000000000000000000000000000000000000000000000000000000000000012c"
      ],
      "transaction": {
        "from": "0x2f321372e8a9755cd2ca6114eb8da32a14f8100b",
        "to": "0x37922885311bc9d18e136e4fe6654409d3f45ffd",
        "gas": "0x97fb2",
        "value": "0x0",
        "input": "0xcdcb760af1b2fcd8688a2fa79727dcd3bdba237a85bbc737ca331cb5de6905187d4c646f0000000000000000000000000000000000000000000000000000000000000040000000000000000000000000000000000000000000000000000000000000078460c03461011f57601f61074438819003918201601f19168301916001600160401b0383118484101761012457808492604094855283398101031261011f5780516001600160a01b0381169182820361011f576020015191156100da5781156100955760805260a052604051610609908161013b8239608051818181608b01526103ad015260a05181818161016d01526102070152f35b60405162461bcd60e51b815260206004820152601560248201527f496e76616c6964206d61782070726963652061676500000000000000000000006044820152606490fd5b60405162461bcd60e51b815260206004820152601660248201527f496e76616c6964207369676e65722061646472657373000000000000000000006044820152606490fd5b600080fd5b634e487b7160e01b600052604160045260246000fdfe608080604052600436101561001357600080fd5b60003560e01c9081631584410a1461013957508063eab44f2a146100b45763f74d54801461004057600080fd5b346100af5760007ffffffffffffffffffffffffffffffffffffffffffffffffffffffffffffffffc3601126100af57602060405173ffffffffffffffffffffffffffffffffffffffff7f0000000000000000000000000000000000000000000000000000000000000000168152f35b600080fd5b346100af5760207ffffffffffffffffffffffffffffffffffffffffffffffffffffffffffffffffc3601126100af5760043567ffffffffffffffff81116100af5760807ffffffffffffffffffffffffffffffffffffffffffffffffffffffffffffffffc82360301126100af5761012f602091600401610200565b6040519015158152f35b346100af5760007ffffffffffffffffffffffffffffffffffffffffffffffffffffffffffffffffc3601126100af576020907f00000000000000000000000000000000000000000000000000000000000000008152f35b90601f7fffffffffffffffffffffffffffffffffffffffffffffffffffffffffffffffe0910116810190811067ffffffffffffffff8211176101d157604052565b7f4e487b7100000000000000000000000000000000000000000000000000000000600052604160045260246000fd5b60408101357f000000000000000000000000000000000000000000000000000000000000000081018082116103da5742116103d35781359073ffffffffffffffffffffffffffffffffffffffff821682036100af57604051907fffffffffffffffffffffffffffffffffffffffff000000000000000000000000602083019360601b168352602084013560348301526054820152466074820152607481526102a9609482610190565b5190207f19457468657265756d205369676e6564204d6573736167653a0a333200000000600052601c52603c600020906060810135907fffffffffffffffffffffffffffffffffffffffffffffffffffffffffffffffe1813603018212156100af57019081359167ffffffffffffffff83116100af57602081019183360383136100af576040519161036360207fffffffffffffffffffffffffffffffffffffffffffffffffffffffffffffffe0601f8801160184610190565b84835260208536920101116100af5760006020856103959661038c968387013784010152610409565b90929192610445565b73ffffffffffffffffffffffffffffffffffffffff807f00000000000000000000000000000000000000000000000000000000000000001691161490565b5050600090565b7f4e487b7100000000000000000000000000000000000000000000000000000000600052601160045260246000fd5b815191906041830361043a5761043392506020820151906060604084015193015160001a90610531565b9192909190565b505060009160029190565b9190916004811015610502578061045b57509050565b60006001820361048f577ff645eedf0000000000000000000000000000000000000000000000000000000060005260046000fd5b50600281036104c657827ffce698f70000000000000000000000000000000000000000000000000000000060005260045260246000fd5b90916003600092146104d6575050565b602492507fd78bce0c000000000000000000000000000000000000000000000000000000008252600452fd5b7f4e487b7100000000000000000000000000000000000000000000000000000000600052602160045260246000fd5b91907f7fffffffffffffffffffffffffffffff5d576e7357a4501ddfe92f46681b20a084116105c7579160209360809260ff60009560405194855216868401526040830152606082015282805260015afa156105bb5760005173ffffffffffffffffffffffffffffffffffffffff8116156105af5790600090600090565b50600090600190600090565b6040513d6000823e3d90fd5b5050506000916003919056fea2646970667358221220507bfe3c353fdcdf31efbfa99149abf51ff91c9fbe08d34335eca546b3eccd7564736f6c634300081a00330000000000000000000000002f321372e8a9755cd2ca6114eb8da32a14f8100b000000000000000000000000000000000000000000000000000000000000012c00000000000000000000000000000000000000000000000000000000",
        "nonce": "0x33c",
        "chainId": "0x1e0"
      },
      "additionalContracts": [
        {
          "transactionType": "CREATE2",
          "contractName": null,
          "address": "0x74fe6bd5fef872fe565ddc2976f4b98d5d86b469",
          "initCode": "0x67363d3d37363d34f03d5260086018f3"
        },
        {
          "transactionType": "CREATE",
          "contractName": "DaimoPayPricer",
          "address": "0xc167c11756823293f905af362e7cb870fb85e922",
          "initCode": "0x60c03461011f57601f61074438819003918201601f19168301916001600160401b0383118484101761012457808492604094855283398101031261011f5780516001600160a01b0381169182820361011f576020015191156100da5781156100955760805260a052604051610609908161013b8239608051818181608b01526103ad015260a05181818161016d01526102070152f35b60405162461bcd60e51b815260206004820152601560248201527f496e76616c6964206d61782070726963652061676500000000000000000000006044820152606490fd5b60405162461bcd60e51b815260206004820152601660248201527f496e76616c6964207369676e65722061646472657373000000000000000000006044820152606490fd5b600080fd5b634e487b7160e01b600052604160045260246000fdfe608080604052600436101561001357600080fd5b60003560e01c9081631584410a1461013957508063eab44f2a146100b45763f74d54801461004057600080fd5b346100af5760007ffffffffffffffffffffffffffffffffffffffffffffffffffffffffffffffffc3601126100af57602060405173ffffffffffffffffffffffffffffffffffffffff7f0000000000000000000000000000000000000000000000000000000000000000168152f35b600080fd5b346100af5760207ffffffffffffffffffffffffffffffffffffffffffffffffffffffffffffffffc3601126100af5760043567ffffffffffffffff81116100af5760807ffffffffffffffffffffffffffffffffffffffffffffffffffffffffffffffffc82360301126100af5761012f602091600401610200565b6040519015158152f35b346100af5760007ffffffffffffffffffffffffffffffffffffffffffffffffffffffffffffffffc3601126100af576020907f00000000000000000000000000000000000000000000000000000000000000008152f35b90601f7fffffffffffffffffffffffffffffffffffffffffffffffffffffffffffffffe0910116810190811067ffffffffffffffff8211176101d157604052565b7f4e487b7100000000000000000000000000000000000000000000000000000000600052604160045260246000fd5b60408101357f000000000000000000000000000000000000000000000000000000000000000081018082116103da5742116103d35781359073ffffffffffffffffffffffffffffffffffffffff821682036100af57604051907fffffffffffffffffffffffffffffffffffffffff000000000000000000000000602083019360601b168352602084013560348301526054820152466074820152607481526102a9609482610190565b5190207f19457468657265756d205369676e6564204d6573736167653a0a333200000000600052601c52603c600020906060810135907fffffffffffffffffffffffffffffffffffffffffffffffffffffffffffffffe1813603018212156100af57019081359167ffffffffffffffff83116100af57602081019183360383136100af576040519161036360207fffffffffffffffffffffffffffffffffffffffffffffffffffffffffffffffe0601f8801160184610190565b84835260208536920101116100af5760006020856103959661038c968387013784010152610409565b90929192610445565b73ffffffffffffffffffffffffffffffffffffffff807f00000000000000000000000000000000000000000000000000000000000000001691161490565b5050600090565b7f4e487b7100000000000000000000000000000000000000000000000000000000600052601160045260246000fd5b815191906041830361043a5761043392506020820151906060604084015193015160001a90610531565b9192909190565b505060009160029190565b9190916004811015610502578061045b57509050565b60006001820361048f577ff645eedf0000000000000000000000000000000000000000000000000000000060005260046000fd5b50600281036104c657827ffce698f70000000000000000000000000000000000000000000000000000000060005260045260246000fd5b90916003600092146104d6575050565b602492507fd78bce0c000000000000000000000000000000000000000000000000000000008252600452fd5b7f4e487b7100000000000000000000000000000000000000000000000000000000600052602160045260246000fd5b91907f7fffffffffffffffffffffffffffffff5d576e7357a4501ddfe92f46681b20a084116105c7579160209360809260ff60009560405194855216868401526040830152606082015282805260015afa156105bb5760005173ffffffffffffffffffffffffffffffffffffffff8116156105af5790600090600090565b50600090600190600090565b6040513d6000823e3d90fd5b5050506000916003919056fea2646970667358221220507bfe3c353fdcdf31efbfa99149abf51ff91c9fbe08d34335eca546b3eccd7564736f6c634300081a00330000000000000000000000002f321372e8a9755cd2ca6114eb8da32a14f8100b000000000000000000000000000000000000000000000000000000000000012c"
        }
      ],
      "isFixedGasLimit": false
    }
  ],
  "receipts": [
    {
      "status": "0x1",
      "cumulativeGasUsed": "0x2d8a34",
      "logs": [],
      "logsBloom": "0x00000000000000000000000000000000000000000000000000000000000000000000000000000000000000000000000000000000000000000000000000000000000000000000000000000000000000000000000000000000000000000000000000000000000000000000000000000000000000000000000000000000000000000000000000000000000000000000000000000000000000000000000000000000000000000000000000000000000000000000000000000000000000000000000000000000000000000000000000000000000000000000000000000000000000000000000000000000000000000000000000000000000000000000000000000000",
      "type": "0x2",
      "transactionHash": "0x3a5d91dc6dd82da17d4e6a610f128cda4424a56396d542de2649b9c560bce7d2",
      "transactionIndex": "0xb",
      "blockHash": "0xfcd72e28aac2339adaab21e0c0bc03a1c820786c782f6f6cd24263200287e11a",
      "blockNumber": "0x1735830",
      "gasUsed": "0x67f2f",
      "effectiveGasPrice": "0x187a8",
      "from": "0x2f321372e8a9755cd2ca6114eb8da32a14f8100b",
      "to": "0x37922885311bc9d18e136e4fe6654409d3f45ffd",
      "contractAddress": null,
      "l1BaseFeeScalar": "0x21f9",
      "l1BlobBaseFee": "0x1bf79d",
      "l1BlobBaseFeeScalar": "0xdd3ef",
      "l1Fee": "0x1c0b272d1",
      "l1GasPrice": "0x2523888",
      "l1GasUsed": "0x4274"
    }
  ],
  "libraries": [],
  "pending": [],
  "returns": {},
  "timestamp": 1768008525384,
  "chain": 480,
  "commit": "61703b62"
}